{
  "contracts/CountContract.sol": {
    "CountContract": {
      "abi": [
        {
          "inputs": [
            {
              "internalType": "int256",
              "name": "value",
              "type": "int256"
            }
          ],
          "name": "decrease",
          "outputs": [
            {
              "internalType": "int256",
              "name": "",
              "type": "int256"
            }
          ],
          "stateMutability": "nonpayable",
          "type": "function"
        },
        {
          "inputs": [],
          "name": "getNumber",
          "outputs": [
            {
              "internalType": "int256",
              "name": "",
              "type": "int256"
            }
          ],
          "stateMutability": "view",
          "type": "function"
        },
        {
          "inputs": [
            {
              "internalType": "int256",
              "name": "value",
              "type": "int256"
            }
          ],
          "name": "increase",
          "outputs": [
            {
              "internalType": "int256",
              "name": "",
              "type": "int256"
            }
          ],
          "stateMutability": "nonpayable",
          "type": "function"
        }
      ],
      "evm": {
        "bytecode": {
          "linkReferences": {},
          "object": "608060405260008055348015601357600080fd5b50610293806100236000396000f3fe608060405234801561001057600080fd5b50600436106100415760003560e01c8063c51c0e0c14610046578063d0801b0114610076578063f2c9ecd8146100a6575b600080fd5b610060600480360381019061005b9190610150565b6100c4565b60405161006d919061018c565b60405180910390f35b610090600480360381019061008b9190610150565b6100e8565b60405161009d919061018c565b60405180910390f35b6100ae61010c565b6040516100bb919061018c565b60405180910390f35b6000816000808282546100d791906101d6565b925050819055506000549050919050565b6000816000808282546100fb9190610219565b925050819055506000549050919050565b60008054905090565b600080fd5b6000819050919050565b61012d8161011a565b811461013857600080fd5b50565b60008135905061014a81610124565b92915050565b60006020828403121561016657610165610115565b5b60006101748482850161013b565b91505092915050565b6101868161011a565b82525050565b60006020820190506101a1600083018461017d565b92915050565b7f4e487b7100000000000000000000000000000000000000000000000000000000600052601160045260246000fd5b60006101e18261011a565b91506101ec8361011a565b9250828203905081811260008412168282136000851215161715610213576102126101a7565b5b92915050565b60006102248261011a565b915061022f8361011a565b925082820190508281121560008312168382126000841215161715610257576102566101a7565b5b9291505056fea26469706673582212206e14633ae26074905e7a8c8d2def7ab4c20b467b4e021f5ea760733794cce53e64736f6c634300081c0033",
          "opcodes": "PUSH1 0x80 PUSH1 0x40 MSTORE PUSH1 0x0 DUP1 SSTORE CALLVALUE DUP1 ISZERO PUSH1 0x13 JUMPI PUSH1 0x0 DUP1 REVERT JUMPDEST POP PUSH2 0x293 DUP1 PUSH2 0x23 PUSH1 0x0 CODECOPY PUSH1 0x0 RETURN INVALID PUSH1 0x80 PUSH1 0x40 MSTORE CALLVALUE DUP1 ISZERO PUSH2 0x10 JUMPI PUSH1 0x0 DUP1 REVERT JUMPDEST POP PUSH1 0x4 CALLDATASIZE LT PUSH2 0x41 JUMPI PUSH1 0x0 CALLDATALOAD PUSH1 0xE0 SHR DUP1 PUSH4 0xC51C0E0C EQ PUSH2 0x46 JUMPI DUP1 PUSH4 0xD0801B01 EQ PUSH2 0x76 JUMPI DUP1 PUSH4 0xF2C9ECD8 EQ PUSH2 0xA6 JUMPI JUMPDEST PUSH1 0x0 DUP1 REVERT JUMPDEST PUSH2 0x60 PUSH1 0x4 DUP1 CALLDATASIZE SUB DUP2 ADD SWAP1 PUSH2 0x5B SWAP2 SWAP1 PUSH2 0x150 JUMP JUMPDEST PUSH2 0xC4 JUMP JUMPDEST PUSH1 0x40 MLOAD PUSH2 0x6D SWAP2 SWAP1 PUSH2 0x18C JUMP JUMPDEST PUSH1 0x40 MLOAD DUP1 SWAP2 SUB SWAP1 RETURN JUMPDEST PUSH2 0x90 PUSH1 0x4 DUP1 CALLDATASIZE SUB DUP2 ADD SWAP1 PUSH2 0x8B SWAP2 SWAP1 PUSH2 0x150 JUMP JUMPDEST PUSH2 0xE8 JUMP JUMPDEST PUSH1 0x40 MLOAD PUSH2 0x9D SWAP2 SWAP1 PUSH2 0x18C JUMP JUMPDEST PUSH1 0x40 MLOAD DUP1 SWAP2 SUB SWAP1 RETURN JUMPDEST PUSH2 0xAE PUSH2 0x10C JUMP JUMPDEST PUSH1 0x40 MLOAD PUSH2 0xBB SWAP2 SWAP1 PUSH2 0x18C JUMP JUMPDEST PUSH1 0x40 MLOAD DUP1 SWAP2 SUB SWAP1 RETURN JUMPDEST PUSH1 0x0 DUP2 PUSH1 0x0 DUP1 DUP3 DUP3 SLOAD PUSH2 0xD7 SWAP2 SWAP1 PUSH2 0x1D6 JUMP JUMPDEST SWAP3 POP POP DUP2 SWAP1 SSTORE POP PUSH1 0x0 SLOAD SWAP1 POP SWAP2 SWAP1 POP JUMP JUMPDEST PUSH1 0x0 DUP2 PUSH1 0x0 DUP1 DUP3 DUP3 SLOAD PUSH2 0xFB SWAP2 SWAP1 PUSH2 0x219 JUMP JUMPDEST SWAP3 POP POP DUP2 SWAP1 SSTORE POP PUSH1 0x0 SLOAD SWAP1 POP SWAP2 SWAP1 POP JUMP JUMPDEST PUSH1 0x0 DUP1 SLOAD SWAP1 POP SWAP1 JUMP JUMPDEST PUSH1 0x0 DUP1 REVERT JUMPDEST PUSH1 0x0 DUP2 SWAP1 POP SWAP2 SWAP1 POP JUMP JUMPDEST PUSH2 0x12D DUP2 PUSH2 0x11A JUMP JUMPDEST DUP2 EQ PUSH2 0x138 JUMPI PUSH1 0x0 DUP1 REVERT JUMPDEST POP JUMP JUMPDEST PUSH1 0x0 DUP2 CALLDATALOAD SWAP1 POP PUSH2 0x14A DUP2 PUSH2 0x124 JUMP JUMPDEST SWAP3 SWAP2 POP POP JUMP JUMPDEST PUSH1 0x0 PUSH1 0x20 DUP3 DUP5 SUB SLT ISZERO PUSH2 0x166 JUMPI PUSH2 0x165 PUSH2 0x115 JUMP JUMPDEST JUMPDEST PUSH1 0x0 PUSH2 0x174 DUP5 DUP3 DUP6 ADD PUSH2 0x13B JUMP JUMPDEST SWAP2 POP POP SWAP3 SWAP2 POP POP JUMP JUMPDEST PUSH2 0x186 DUP2 PUSH2 0x11A JUMP JUMPDEST DUP3 MSTORE POP POP JUMP JUMPDEST PUSH1 0x0 PUSH1 0x20 DUP3 ADD SWAP1 POP PUSH2 0x1A1 PUSH1 0x0 DUP4 ADD DUP5 PUSH2 0x17D JUMP JUMPDEST SWAP3 SWAP2 POP POP JUMP JUMPDEST PUSH32 0x4E487B7100000000000000000000000000000000000000000000000000000000 PUSH1 0x0 MSTORE PUSH1 0x11 PUSH1 0x4 MSTORE PUSH1 0x24 PUSH1 0x0 REVERT JUMPDEST PUSH1 0x0 PUSH2 0x1E1 DUP3 PUSH2 0x11A JUMP JUMPDEST SWAP2 POP PUSH2 0x1EC DUP4 PUSH2 0x11A JUMP JUMPDEST SWAP3 POP DUP3 DUP3 SUB SWAP1 POP DUP2 DUP2 SLT PUSH1 0x0 DUP5 SLT AND DUP3 DUP3 SGT PUSH1 0x0 DUP6 SLT ISZERO AND OR ISZERO PUSH2 0x213 JUMPI PUSH2 0x212 PUSH2 0x1A7 JUMP JUMPDEST JUMPDEST SWAP3 SWAP2 POP POP JUMP JUMPDEST PUSH1 0x0 PUSH2 0x224 DUP3 PUSH2 0x11A JUMP JUMPDEST SWAP2 POP PUSH2 0x22F DUP4 PUSH2 0x11A JUMP JUMPDEST SWAP3 POP DUP3 DUP3 ADD SWAP1 POP DUP3 DUP2 SLT ISZERO PUSH1 0x0 DUP4 SLT AND DUP4 DUP3 SLT PUSH1 0x0 DUP5 SLT ISZERO AND OR ISZERO PUSH2 0x257 JUMPI PUSH2 0x256 PUSH2 0x1A7 JUMP JUMPDEST JUMPDEST SWAP3 SWAP2 POP POP JUMP INVALID LOG2 PUSH5 0x6970667358 0x22 SLT KECCAK256 PUSH15 0x14633AE26074905E7A8C8D2DEF7AB4 0xC2 SIGNEXTEND CHAINID PUSH28 0x4E021F5EA760733794CCE53E64736F6C634300081C00330000000000 "
        },
        "methodIdentifiers": {
          "decrease(int256)": "c51c0e0c",
          "getNumber()": "f2c9ecd8",
          "increase(int256)": "d0801b01"
        }
      }
    }
  }
}