{
  "_format": "hh-sol-artifact-1",
  "contractName": "CountContract",
  "sourceName": "contracts/CountContract.sol",
  "abi": [
    {
      "inputs": [
        {
          "internalType": "int256",
          "name": "value",
          "type": "int256"
        }
      ],
      "name": "decrease",
      "outputs": [
        {
          "internalType": "int256",
          "name": "",
          "type": "int256"
        }
      ],
      "stateMutability": "nonpayable",
      "type": "function"
    },
    {
      "inputs": [],
      "name": "getNumber",
      "outputs": [
        {
          "internalType": "int256",
          "name": "",
          "type": "int256"
        }
      ],
      "stateMutability": "view",
      "type": "function"
    },
    {
      "inputs": [
        {
          "internalType": "int256",
          "name": "value",
          "type": "int256"
        }
      ],
      "name": "increase",
      "outputs": [
        {
          "internalType": "int256",
          "name": "",
          "type": "int256"
        }
      ],
      "stateMutability": "nonpayable",
      "type": "function"
    }
  ],
  "bytecode": "0x608060405260008055348015601357600080fd5b50610293806100236000396000f3fe608060405234801561001057600080fd5b50600436106100415760003560e01c8063c51c0e0c14610046578063d0801b0114610076578063f2c9ecd8146100a6575b600080fd5b610060600480360381019061005b9190610150565b6100c4565b60405161006d919061018c565b60405180910390f35b610090600480360381019061008b9190610150565b6100e8565b60405161009d919061018c565b60405180910390f35b6100ae61010c565b6040516100bb919061018c565b60405180910390f35b6000816000808282546100d791906101d6565b925050819055506000549050919050565b6000816000808282546100fb9190610219565b925050819055506000549050919050565b60008054905090565b600080fd5b6000819050919050565b61012d8161011a565b811461013857600080fd5b50565b60008135905061014a81610124565b92915050565b60006020828403121561016657610165610115565b5b60006101748482850161013b565b91505092915050565b6101868161011a565b82525050565b60006020820190506101a1600083018461017d565b92915050565b7f4e487b7100000000000000000000000000000000000000000000000000000000600052601160045260246000fd5b60006101e18261011a565b91506101ec8361011a565b9250828203905081811260008412168282136000851215161715610213576102126101a7565b5b92915050565b60006102248261011a565b915061022f8361011a565b925082820190508281121560008312168382126000841215161715610257576102566101a7565b5b9291505056fea26469706673582212206e14633ae26074905e7a8c8d2def7ab4c20b467b4e021f5ea760733794cce53e64736f6c634300081c0033",
  "linkReferences": {},
  "deployedLinkReferences": {}
}